:100000000C942A000C943F000C943F000C943F0089
:100010000C943F000C943F000C943F000C943F0064
:100020000C943F000C943F000C943F000C943F0054
:100030000C943F000C943F000C943F000C943F0044
:100040000C943F000C943F000C943F000C943F0034
:100050000C943F0011241FBECFE5D8E0DEBFCDBF1A
:1000600010E0A0E6B0E0EEE1F1E002C005900D92F4
:10007000A037B107D9F70E947C000C948D000C9436
:1000800000008FE087BB90EF98BB84BB30E030C0AE
:10009000E32FF0E081E090E0032E02C0880F991F6B
:1000A0000A94E2F7809588BB8FE39CE90197F1F70A
:1000B00000C0000020E019C086B3422F50E0BA0112
:1000C0006C5F7F4F90E002C0959587956A95E2F747
:1000D00080FD0AC0EE0FFF1FEE0FFF1FE05AFF4F1B
:1000E000E40FF51F808108952F5F243028F33F5FD0
:1000F000343070F280E008958FEF84BB15BA0E940F
:100100004100811185BB2FEF80E792E021508040B4
:0E0110009040E1F700C00000F2CFF894FFCF5E
:10011E000102030A0405060B0708090C0E000F0D59
:00000001FF
